{
  "_format": "hh-sol-artifact-1",
  "contractName": "CupOfCoffeePortal",
  "sourceName": "contracts/CupOfCoffeePortal.sol",
  "abi": [
    {
      "inputs": [],
      "stateMutability": "payable",
      "type": "constructor"
    },
    {
      "anonymous": false,
      "inputs": [
        {
          "indexed": true,
          "internalType": "address",
          "name": "from",
          "type": "address"
        },
        {
          "indexed": false,
          "internalType": "uint256",
          "name": "timestamp",
          "type": "uint256"
        },
        {
          "indexed": false,
          "internalType": "string",
          "name": "message",
          "type": "string"
        }
      ],
      "name": "coffeeTalk",
      "type": "event"
    },
    {
      "inputs": [
        {
          "internalType": "string",
          "name": "_message",
          "type": "string"
        }
      ],
      "name": "buyCoffee",
      "outputs": [],
      "stateMutability": "nonpayable",
      "type": "function"
    },
    {
      "inputs": [],
      "name": "getAllCoffeeTalks",
      "outputs": [
        {
          "components": [
            {
              "internalType": "address",
              "name": "talker",
              "type": "address"
            },
            {
              "internalType": "uint256",
              "name": "timestamp",
              "type": "uint256"
            },
            {
              "internalType": "string",
              "name": "message",
              "type": "string"
            }
          ],
          "internalType": "struct CupOfCoffeePortal.NewCoffeeTalk[]",
          "name": "",
          "type": "tuple[]"
        }
      ],
      "stateMutability": "view",
      "type": "function"
    },
    {
      "inputs": [],
      "name": "getTotalCupsOfCoffees",
      "outputs": [
        {
          "internalType": "uint256",
          "name": "",
          "type": "uint256"
        }
      ],
      "stateMutability": "view",
      "type": "function"
    },
    {
      "inputs": [
        {
          "internalType": "address",
          "name": "",
          "type": "address"
        }
      ],
      "name": "lastCoffeeRequest",
      "outputs": [
        {
          "internalType": "uint256",
          "name": "",
          "type": "uint256"
        }
      ],
      "stateMutability": "view",
      "type": "function"
    }
  ],
  "bytecode": "0x60806040526200004f6040518060400160405280601681526020017f736d61727420636f6e74726163742063726561746564000000000000000000008152506200007760201b620006881760201c565b606442446200005f9190620001c4565b6200006b919062000261565b60018190555062000308565b62000117816040516024016200008e919062000184565b6040516020818303038152906040527f41304fac000000000000000000000000000000000000000000000000000000007bffffffffffffffffffffffffffffffffffffffffffffffffffffffff19166020820180517bffffffffffffffffffffffffffffffffffffffffffffffffffffffff83818316178352505050506200011a60201b60201c565b50565b60008151905060006a636f6e736f6c652e6c6f679050602083016000808483855afa5050505050565b60006200015082620001a8565b6200015c8185620001b3565b93506200016e8185602086016200022b565b6200017981620002f7565b840191505092915050565b60006020820190508181036000830152620001a0818462000143565b905092915050565b600081519050919050565b600082825260208201905092915050565b6000620001d18262000221565b9150620001de8362000221565b9250827fffffffffffffffffffffffffffffffffffffffffffffffffffffffffffffffff0382111562000216576200021562000299565b5b828201905092915050565b6000819050919050565b60005b838110156200024b5780820151818401526020810190506200022e565b838111156200025b576000848401525b50505050565b60006200026e8262000221565b91506200027b8362000221565b9250826200028e576200028d620002c8565b5b828206905092915050565b7f4e487b7100000000000000000000000000000000000000000000000000000000600052601160045260246000fd5b7f4e487b7100000000000000000000000000000000000000000000000000000000600052601260045260246000fd5b6000601f19601f8301169050919050565b61114080620003186000396000f3fe608060405234801561001057600080fd5b506004361061004c5760003560e01c80630c2f349e146100515780632b371b5414610081578063d77428371461009d578063f7c2db95146100bb575b600080fd5b61006b600480360381019061006691906109a2565b6100d9565b6040516100789190610dd2565b60405180910390f35b61009b600480360381019061009691906109cb565b6100f1565b005b6100a56104ec565b6040516100b29190610cce565b60405180910390f35b6100c361063d565b6040516100d09190610dd2565b60405180910390f35b60036020528060005260406000206000915090505481565b42610384600360003373ffffffffffffffffffffffffffffffffffffffff1673ffffffffffffffffffffffffffffffffffffffff1681526020019081526020016000205461013f9190610eef565b1061017f576040517f08c379a000000000000000000000000000000000000000000000000000000000815260040161017690610d92565b60405180910390fd5b42600360003373ffffffffffffffffffffffffffffffffffffffff1673ffffffffffffffffffffffffffffffffffffffff1681526020019081526020016000208190555060016000808282546101d59190610eef565b9250508190555061021b6040518060400160405280601981526020017f257320626f75676874206120637570206f6620636f666665650000000000000081525033610721565b600260405180606001604052803373ffffffffffffffffffffffffffffffffffffffff16815260200142815260200183815250908060018154018082558091505060019003906000526020600020906003020160009091909190915060008201518160000160006101000a81548173ffffffffffffffffffffffffffffffffffffffff021916908373ffffffffffffffffffffffffffffffffffffffff1602179055506020820151816001015560408201518160020190805190602001906102e4929190610882565b505050606460015442446102f89190610eef565b6103029190610eef565b61030c9190610ff5565b6001819055506103536040518060400160405280601681526020017f72616e646f6d20232067656e6572617465643a202564000000000000000000008152506001546107bd565b6032600154116104995761039c6040518060400160405280600781526020017f257320776f6e210000000000000000000000000000000000000000000000000081525033610721565b6000655af3107a40009050478111156103ea576040517f08c379a00000000000000000000000000000000000000000000000000000000081526004016103e190610d72565b60405180910390fd5b60003373ffffffffffffffffffffffffffffffffffffffff168260405161041090610cb9565b60006040518083038185875af1925050503d806000811461044d576040519150601f19603f3d011682016040523d82523d6000602084013e610452565b606091505b5050905080610496576040517f08c379a000000000000000000000000000000000000000000000000000000000815260040161048d90610db2565b60405180910390fd5b50505b3373ffffffffffffffffffffffffffffffffffffffff167f69d4ea20cf7fc366f03f59388abca76df626aba062f8d3e1696912c6b15f195a42836040516104e1929190610ded565b60405180910390a250565b60606002805480602002602001604051908101604052809291908181526020016000905b8282101561063457838290600052602060002090600302016040518060600160405290816000820160009054906101000a900473ffffffffffffffffffffffffffffffffffffffff1673ffffffffffffffffffffffffffffffffffffffff1673ffffffffffffffffffffffffffffffffffffffff168152602001600182015481526020016002820180546105a390610fc3565b80601f01602080910402602001604051908101604052809291908181526020018280546105cf90610fc3565b801561061c5780601f106105f15761010080835404028352916020019161061c565b820191906000526020600020905b8154815290600101906020018083116105ff57829003601f168201915b50505050508152505081526020019060010190610510565b50505050905090565b60006106806040518060400160405280601f81526020017f5765206861766520256420746f74616c2063757073206f6620636f66666565008152506000546107bd565b600054905090565b61071e8160405160240161069c9190610cf0565b6040516020818303038152906040527f41304fac000000000000000000000000000000000000000000000000000000007bffffffffffffffffffffffffffffffffffffffffffffffffffffffff19166020820180517bffffffffffffffffffffffffffffffffffffffffffffffffffffffff8381831617835250505050610859565b50565b6107b98282604051602401610737929190610d12565b6040516020818303038152906040527f319af333000000000000000000000000000000000000000000000000000000007bffffffffffffffffffffffffffffffffffffffffffffffffffffffff19166020820180517bffffffffffffffffffffffffffffffffffffffffffffffffffffffff8381831617835250505050610859565b5050565b61085582826040516024016107d3929190610d42565b6040516020818303038152906040527f9710a9d0000000000000000000000000000000000000000000000000000000007bffffffffffffffffffffffffffffffffffffffffffffffffffffffff19166020820180517bffffffffffffffffffffffffffffffffffffffffffffffffffffffff8381831617835250505050610859565b5050565b60008151905060006a636f6e736f6c652e6c6f679050602083016000808483855afa5050505050565b82805461088e90610fc3565b90600052602060002090601f0160209004810192826108b057600085556108f7565b82601f106108c957805160ff19168380011785556108f7565b828001600101855582156108f7579182015b828111156108f65782518255916020019190600101906108db565b5b5090506109049190610908565b5090565b5b80821115610921576000816000905550600101610909565b5090565b600061093861093384610e4e565b610e1d565b90508281526020810184848401111561095057600080fd5b61095b848285610f81565b509392505050565b600081359050610972816110f3565b92915050565b600082601f83011261098957600080fd5b8135610999848260208601610925565b91505092915050565b6000602082840312156109b457600080fd5b60006109c284828501610963565b91505092915050565b6000602082840312156109dd57600080fd5b600082013567ffffffffffffffff8111156109f757600080fd5b610a0384828501610978565b91505092915050565b6000610a188383610c4b565b905092915050565b610a2981610f45565b82525050565b610a3881610f45565b82525050565b6000610a4982610e8e565b610a538185610eb1565b935083602082028501610a6585610e7e565b8060005b85811015610aa15784840389528151610a828582610a0c565b9450610a8d83610ea4565b925060208a01995050600181019050610a69565b50829750879550505050505092915050565b6000610abe82610e99565b610ac88185610ecd565b9350610ad8818560208601610f90565b610ae1816110e2565b840191505092915050565b6000610af782610e99565b610b018185610ede565b9350610b11818560208601610f90565b610b1a816110e2565b840191505092915050565b6000610b32600083610ec2565b9150600082019050919050565b6000610b4c603383610ede565b91507f747279696e6720746f207769746864726177206d6f7265206d6f6e657920746860008301527f616e2074686520636f6e747261637420686173000000000000000000000000006020830152604082019050919050565b6000610bb2600883610ede565b91507f576169742031356d0000000000000000000000000000000000000000000000006000830152602082019050919050565b6000610bf2602683610ede565b91507f6661696c656420746f207769746864726177206d6f6e65792066726f6d20636f60008301527f6e747261637400000000000000000000000000000000000000000000000000006020830152604082019050919050565b6000606083016000830151610c636000860182610a20565b506020830151610c766020860182610c9b565b5060408301518482036040860152610c8e8282610ab3565b9150508091505092915050565b610ca481610f77565b82525050565b610cb381610f77565b82525050565b6000610cc482610b25565b9150819050919050565b60006020820190508181036000830152610ce88184610a3e565b905092915050565b60006020820190508181036000830152610d0a8184610aec565b905092915050565b60006040820190508181036000830152610d2c8185610aec565b9050610d3b6020830184610a2f565b9392505050565b60006040820190508181036000830152610d5c8185610aec565b9050610d6b6020830184610caa565b9392505050565b60006020820190508181036000830152610d8b81610b3f565b9050919050565b60006020820190508181036000830152610dab81610ba5565b9050919050565b60006020820190508181036000830152610dcb81610be5565b9050919050565b6000602082019050610de76000830184610caa565b92915050565b6000604082019050610e026000830185610caa565b8181036020830152610e148184610aec565b90509392505050565b6000604051905081810181811067ffffffffffffffff82111715610e4457610e436110b3565b5b8060405250919050565b600067ffffffffffffffff821115610e6957610e686110b3565b5b601f19601f8301169050602081019050919050565b6000819050602082019050919050565b600081519050919050565b600081519050919050565b6000602082019050919050565b600082825260208201905092915050565b600081905092915050565b600082825260208201905092915050565b600082825260208201905092915050565b6000610efa82610f77565b9150610f0583610f77565b9250827fffffffffffffffffffffffffffffffffffffffffffffffffffffffffffffffff03821115610f3a57610f39611026565b5b828201905092915050565b6000610f5082610f57565b9050919050565b600073ffffffffffffffffffffffffffffffffffffffff82169050919050565b6000819050919050565b82818337600083830152505050565b60005b83811015610fae578082015181840152602081019050610f93565b83811115610fbd576000848401525b50505050565b60006002820490506001821680610fdb57607f821691505b60208210811415610fef57610fee611084565b5b50919050565b600061100082610f77565b915061100b83610f77565b92508261101b5761101a611055565b5b828206905092915050565b7f4e487b7100000000000000000000000000000000000000000000000000000000600052601160045260246000fd5b7f4e487b7100000000000000000000000000000000000000000000000000000000600052601260045260246000fd5b7f4e487b7100000000000000000000000000000000000000000000000000000000600052602260045260246000fd5b7f4e487b7100000000000000000000000000000000000000000000000000000000600052604160045260246000fd5b6000601f19601f8301169050919050565b6110fc81610f45565b811461110757600080fd5b5056fea264697066735822122010d9f028e12c7becabce9de81b7f49b5da5adf9cb9e05cf5e165bba42d9b245564736f6c63430008000033",
  "linkReferences": {},
  "deployedLinkReferences": {}
}